:020000040800F2
:10000000406600205D020008E33A00080133000862
:10001000E13A000861090008654C00080000000092
:100020000000000000000000000000009D0100082A
:10003000D50D000800000000F9010008E53F0008A8
:1000400077020008770200087702000877020008AC
:10005000770200087702000877020008770200089C
:10006000770200087702000877020008D90A000822
:10007000E50A0008F10A0008FD0A0008090B00085B
:10008000150B0008210B00087702000889090008F9
:1000900065090008710900087D0900087702000859
:1000A00077020008E940000877020008770200089C
:1000B000770200087702000877020008770200083C
:1000C000770200087702000877020008770200082C
:1000D00077020008214B00082D4B0008454B000813
:1000E000770200087702000877020008770200080C
:1000F0007702000877020008770200082D0B00083D
:1001000077020008770200087702000877020008EB
:100110005146000869460008770200087702000887
:1001200077020008390B0008450B00087702000829
:10013000770200087702000877020008B909000872
:1001400095090008A1090008AD0900087702000818
:1001500077020008510B00085D0B0008514B0008A6
:10016000770200087702000877020008770200088B
:1001700077020008770200087702000800000000FC
:100180007702000877020008DFF80CD000F05AFB75
:1001900000480047716F0008406600202C4B19682A
:1001A0000868B0E8F04F80F30988BFF36F8F4FF015
:1001B000000080F3118870470000000008480068C4
:1001C000006880F308884FF0000080F3148862B65E
:1001D00061B6BFF34F8FBFF36F8F00DF00BF00BF6B
:1001E00008ED00E0DFF80C00016841F470010160E7
:1001F000704700BF88ED00E0EFF30980BFF36F8F19
:10020000134B1A681EF0100F08BF20ED108A20E96A
:10021000F04F106009B44FF0500080F31188BFF325
:100220004F8FBFF36F8F08F009FE4FF0000080F38F
:10023000118809BC19680868B0E8F04F1EF0100F6B
:1002400008BFB0EC108A80F30988BFF36F8F704746
:100250000C000020EFF3058070470000064880473F
:1002600006480047FEE7FEE7FEE7FEE7FEE7FEE79B
:10027000FEE7FEE7FEE7FEE795400008890100087B
:100280002DE9F05F0546002092469B4688460646CB
:10029000814640241BE0284641464746224600F05E
:1002A0000AFA53465A46C01A914110D311461846CD
:1002B000224600F0F1F92D1A67EB01084F4622465D
:1002C0000120002100F0E8F917EB00094E41201E43
:1002D000A4F10104DFDC484631462A464346BDE826
:1002E000F09F40EA01039B0703D009E008C9121FF1
:1002F00008C0042AFAD203E011F8013B00F8013BE0
:10030000521EF9D27047D2B201E000F8012B491E0B
:10031000FBD270470022F6E710B513460A460446A2
:100320001946FFF7F0FF204610BD2DE9FE4F80462D
:1003300081EA0300C00F0C46009021F0004123F039
:100340000045B8EB0200A94105D24046214690463F
:100350001C460B46024623F00040104347D0270DB1
:10036000C7F30A00C3F30A510290401A01904028D3
:100370006BDAC3F3130040F4801B0098924620B15F
:100380000023D2EB030A63EB0B0B01985946C0F133
:100390004002504600F080F906460D465046594648
:1003A000019A00F098F910EB08006141002487EAF7
:1003B000115284EAE7731A4340D0009A62B3019A5B
:1003C000012A4FEA075215DC001B61EB02014FF0D6
:1003D000004202EA0752CDE90042001C41F58011BB
:1003E00032462B4600F0CFF903B0BDE8F08F40460F
:1003F0002146F9E7001B61EB0201001C41F5801367
:1004000000185B412018A2F5001747EB030140EAF2
:10041000D570B6196D4111E06D084FEA360645EA10
:10042000C0754FEA0752001B61EB0201001C41F549
:10043000801149084FEA30000019514132462B46DD
:1004400003B0BDE8F04F00F08FB9009801224000E2
:100450000023D0EB020263EBE073009821464FEAE1
:10046000E074B8EB000061EB0401E9E783F00043BE
:100470005BE781F0004158E72DE9FE4F81EA030474
:1004800004F0004421F0004100944FF0000B23F0F1
:10049000004350EA01045ED052EA03045BD0C3F388
:1004A0000A54C1F30A552C44A4F2F3340194A0FB7E
:1004B0000254C1F3130141F48011C3F3130343F455
:1004C000801301FB024400FB034E840A970A44EAAE
:1004D000815447EA8357A4FB076802958D0A05FB00
:1004E00007854FEA932C04FB0C542705029D4FEA25
:1004F000065847EA1637B5EB08056EEB070C870E72
:10050000920E47EA811742EA8312A7FB0201B6EB7B
:100510000B0164EB00042B0D43EA0C335E1844EB33
:100520001C50DA465146E7FB0201C5F313044FEABB
:100530000B3343EA14534FEA0432019C43EA0603A7
:10054000A4F10C040294009CCDE900B400F01BF966
:1005500003B0BDE8F08F00200146F9E72DE9F04D2A
:1005600081EA030404F0004B21F0004514464FF0EB
:10057000000A23F0004150EA050220D054EA0102AB
:100580001DD0C5F30A570246C5F31303C1F3130088
:10059000C1F30A5640F4801543F48013A7EB060814
:1005A000101BD64608F2FD3873EB050002D308F1A4
:1005B000010801E092185B41B8F1000F03DA002056
:1005C0000146BDE8F08D00204FF4801106468446B8
:1005D0000EE0171B73EB050705D3121B63EB050336
:1005E00006434CEA010C49084FEA300092185B417F
:1005F00050EA0107EDD152EA030012D082EA04006A
:1006000083EA0501084305D0101BAB4106D2012245
:10061000002306E000224FF0004302E06FF00102E9
:1006200053101AEB06004CEB085110EB0A0041EB9B
:100630000B01BDE8F04D00F097B800F0004230F03B
:1006400000400AD0C10D01F56071C0F3160042EA06
:100650000151C2084007114370470020014670470E
:1006600001F0004330B421F0004150EA010206D00D
:100670000A0DA2F56072C1F31301002A02DC30BC3E
:1006800000207047440F44EAC104C100E01830BCA8
:1006900000EBC25000F031B8202A04DB203A00FA07
:1006A00002F1002070479140C2F1200320FA03F3C9
:1006B000194390407047202A04DB203A21FA02F0C7
:1006C0000021704721FA02F3D040C2F1200291408C
:1006D000084319467047202A06DBCB17203A41FA17
:1006E00002F043EAE07306E041FA02F3D040C2F1BF
:1006F000200291400843194670470029A8BF70475F
:10070000401C490008BF20F00100704710B4B0FA47
:1007100080FC00FA0CF050EA010404BF10BC7047E2
:1007200049B1CCF1200421FA04F411FA0CF118BFFC
:10073000012121430843A3EB0C01CB1D4FEA0061CB
:100740004FEA102042BF002010BC704700EBC3509E
:1007500010440029A4BF10BC7047401C490008BFCA
:1007600020F0010010BC704710B5141E73F1000496
:1007700008DA401C41F1000192185B411A4301D193
:1007800020F0010010BD2DE9F04D92469B4611B1BD
:10079000B1FA81F202E0B0FA80F220329046FFF71F
:1007A0007BFF04460F4640EA0A0041EA0B0153462C
:1007B0005A46084313D0114653EA010019D0C8F134
:1007C00040025046FFF777FF05460E465046594611
:1007D0004246FFF761FF084305D0012004E02046B0
:1007E0003946BDE8F08D0020054346EAE0762C430B
:1007F00037430A986305E40AA0EB08000022FD0ACB
:1008000044EA47540A3002D500200146E9E70105D1
:1008100010196941DDE9084500196941BDE8F04D4D
:10082000A2E70EB5C10F80EAE0700844CA070021B4
:1008300040F233438DE80E000A460B46FFF7A3FF54
:1008400003B000BD064C074D06E0E06840F0010330
:1008500094E8070098471034AC42F6D3FFF798FCB1
:100860001CA300083CA300080EB540F233410291DE
:100870000021CDE900110A460B46FFF784FF03B0C3
:1008800000BD70B5C1F30A5201F000450024C1F368
:10089000130140F2FF3341F480119A4201DA002043
:1008A00070BD40F233439A42A2F2334203DC52421B
:1008B000FFF701FF00E090402C43F1D0404270BDB3
:1008C00070B58C1810F8015B15F0070301D110F812
:1008D000013B2A1106D110F8012B03E010F8016B3F
:1008E00001F8016B5B1EF9D12B0705D40023521EC2
:1008F0000DD401F8013BFAE710F8013BCB1A921C2A
:1009000003E013F8015B01F8015B521EF9D5A14227
:10091000D8D3002070BD000030B50C4605000CD0C7
:10092000022C0AD90548A11E0288284600F0B2FB15
:10093000291901F8020D000A487030BD1A03002081
:1009400030B50C4605000AD0022C08D9601E81B2D1
:10095000FF22284600F0B4FB291901F8010C30BD34
:10096000FEE70000014800F042BD000038410020D1
:10097000014800F03CBD000038410020014800F073
:1009800036BD000038410020014800F030BD0000B5
:1009900038410020014800F02ABD000060410020DD
:1009A000014800F024BD000060410020014800F033
:1009B0001EBD000060410020014800F018BD00008D
:1009C000604100209FED0A1A80ED001A80ED051AA3
:1009D00080ED090AC0ED0A0AB7EE000A80ED070AA9
:1009E00080ED081A80ED0B0A80ED011A70470000B7
:1009F000000000002DE9F0410C46054601F10C0312
:100A0000012202210C3004F095FE04F114030122AE
:100A1000022105F1140004F08DFE04F11C030122F3
:100A2000022105F11C0004F085FE022205F12400DC
:100A300004F174031146074604F07CFE022205F11E
:100A40002C0004F184031146804604F073FE022258
:100A500004F19403114605F1440004F06BFE0222F8
:100A600004F1A403114605F14C0004F063FE0222D8
:100A700004F14403114605F1540004F05BFE022228
:100A800004F12403114605F15C0004F053FE022238
:100A900004F13403114605F1640004F04BFE022218
:100AA00005F1340004F154031146064604F042FEF9
:100AB0003146384604F042FE04F16403022205F197
:100AC0003C001146044604F035FE21464046BDE890
:100AD000F04104F033BE0000014800F0EBBF00001D
:100AE000B04B0020014800F0E5BF0000F04D0020B1
:100AF000014800F0DFBF0000F04A0020014800F08C
:100B0000D9BF0000504E0020014800F0D3BF0000C4
:100B1000504B0020014800F0CDBF0000304D0020B8
:100B2000014800F0C7BF0000904D0020014800F0D0
:100B3000C1BF0000104C0020014800F0BBBF000006
:100B4000B04E0020014800F0B5BF0000704C0020FE
:100B5000014800F0AFBF0000104F0020014800F036
:100B6000A9BF0000D04C002001681823CAB2103A77
:100B7000B2FBF3F2054B6FF30901032A9B5CC365DB
:100B800000D9091D8165084670470000D09C000807
:100B900010B5014600208B698A6A4FF0C07453B1CA
:100BA000B3F5005F15D072B1012A0CD0022A0AD029
:100BB000032A09D104E01AB1012A06D0022A03D17E
:100BC000C96AC90100D5012010BDC96AA142FAD085
:100BD00010BD002AF7D0012AF2D0022AF3D0032A4E
:100BE000F3D010BD30B50468256825F48025256054
:100BF000046863608368402B036803D099600068D1
:100C0000C26030BD9A600068C16030BD0A2839D822
:100C100090B31D4924220B280A7033D2DFE800F07C
:100C200032060A0E12161A1E22272D0005204871C0
:100C300006207047092048720A2070470D2048732B
:100C40000E207047112048741220704715204875F7
:100C500016207047192048761A2070471D204877C3
:100C60001E207047212081F8210022207047252076
:100C700081F825002620704704E0292081F829000A
:100C80002A20F8E70020F6E7F85E002001B50A28E0
:100C90002DED020B12D8002810D00B280ED2DFE861
:100CA00000F00D06080E10121416181A1C0001226E
:100CB00000E005220A49684600F070F90EBD0922DD
:100CC000F8E70D22F6E71122F4E71522F2E71922E0
:100CD000F0E71D22EEE72122ECE72522EAE70000FB
:100CE000F85E002030B5314D0446012095ED130A21
:100CF000FFF7CCFF95ED0D0A0220FFF7C7FF02209A
:100D0000FFF784FF2A492B4B002281F82A009C42DE
:100D100010D1294B81F82B201C1D07E01D686D06A2
:100D2000FCD58D5C2560521C81F82B20D2B282420A
:100D3000F4D330BD214B9C4210D1214B81F82B20A4
:100D40001C1D07E01D686D06FCD58D5C2560521CDE
:100D500081F82B20D2B28242F4D330BD194B9C4291
:100D600010D1194B81F82B201C1D07E01D686D0662
:100D7000FCD58D5C2560521C81F82B20D2B28242BA
:100D8000F4D330BD114B9C42FBD181F82B20104B8A
:100D900007E01C686406FCD58C5C5C60521C81F822
:100DA0002B20D2B28242F4D330BD0000B4510020D7
:100DB000F85E0020304A002000440040704A0020C5
:100DC00000480040B04A002000140140B049002013
:100DD00000500040704770470180002100F1080278
:100DE000416082EC070A9FED020A80ED090A704714
:100DF00000000000DFED3E3A9FED3F5A00B5F0EEF7
:100E0000632A9FED3C2AF0EE451A9FED3C1ADFED78
:100E10003C0A9FED3C0A01213B4800F0A3F89FEDFE
:100E20003C4A3948DFED392AB0EE442ADFED391A61
:100E30009FED391AF0EE630A9FED380A0121243044
:100E400000F090F8DFED384ADFED350A9FED350A06
:100E50002D48B0EE603AF0EE402AB0EE642AF0EE93
:100E6000641AB0EE631A0121483000F089F89FED52
:100E7000301A25489FED2D3AF0EE442AB0EE412A73
:100E8000F0EE441ADFED2B0A9FED2B0A052170309E
:100E9000FFF7A2FFDFED291A1B48F0EE640AB0EE5F
:100EA000611AB0EE610A0521983000F04DF816483D
:100EB000B0EE631AF0EE640AB0EE610A0521B030BC
:100EC00000F042F8DFED1E0A9FED1E0A0E480121D8
:100ED000B0EE603AF0EE402AB0EE452AF0EE451A48
:100EE000B0EE631AC8305DF804EB00F049B80000BA
:100EF00000000000000016440000484400B03D45DA
:100F000000001645006065454C5F0020DB0FC93FBF
:100F10000000C84200007A450000164300009643D6
:100F200000401C4500C05A4500007A44000048C2F9
:100F3000000048430000FAC30000FA4300803B452C
:100F40000020234500D054450180002100F1080213
:100F5000416082EC030A9FED020A80ED050A7047AA
:100F6000000000000180002100F10802416082ECD5
:100F7000060A9FED020A80ED080A70470000000093
:100F80000180002100F10802416082EC070A9FED18
:100F9000020A80ED090A70470000000003788B54B4
:100FA000114443784B7082788A70C078C87070475B
:100FB00070B50A4C00F561701546E08008480E4691
:100FC0000078002809D0204602F048FFA088054A92
:100FD0008119116004492844086070BDC050002088
:100FE000400100203418004040040040104881783F
:100FF00091B101291AD10F490089B1F90220B1F943
:1010000000100F280CD012280DD01E280ED140F24F
:101010001A4000BFFFF7CCBF002211461046F9E787
:101020004FF40770F6E740F25D20F3E770470000E9
:1010300030530020CE00002010B508210F4801F0E9
:1010400029FD0C210D4801F025FD00210C4801F07F
:1010500021FD04210A4801F01DFD0A494FF4617089
:101060000860094908600949B6EE000AC88088800E
:1010700081ED000A06490F20088110BD704800204C
:10108000F04800203418004040040040C0500020C8
:101090003053002010B558B1084C491E0BD310F83E
:1010A000013B5340DBB234F8133083EA1222F4E7F9
:1010B0004FF6FF7010BD104610BD00008A9F00085B
:1010C00010B5064C04E000BF10F8013B5340E25C51
:1010D000491E89B2F8D2104610BD00008A9E000851
:1010E00090F82020012A07D0022A05D0416A41F455
:1010F0008021416201207047006842690A434261D1
:1011000000207047F0B590F820500468A468012DC5
:1011100005D0022D03D0416A41F4802153E014F040
:10112000406F01D1E5004BD5C4F30164022C03D913
:10113000416A41F4000146E00125A5401D608D682B
:101140004FF4C0739DB1CE6835434E6845EAC6057D
:10115000066803EB0417F5514FF4C275076805EBF9
:1011600004150E697E51097D012905D009E00E881C
:10117000CD6845EA4655EBE701684E5946F480765E
:101180004E511179D2F805504FF4C67641EA052543
:10119000016806EB04168D511178D2F801204FF446
:1011A000C47541EA0221026805EB0415515100683B
:1011B00003EB0411425842F0010242500020F0BDFE
:1011C000416A41F4001141620120F0BD10B590F870
:1011D0002020012A07D0022A05D0416A41F480214B
:1011E0004162012010BD3B48D0F8002242F00102CC
:1011F000C0F80022D0F8002222F47C52C0F800226D
:10120000D0F800224B6A42EA0322C0F800220A7D8D
:1012100002F01F0301229A40D0F81C329343C0F819
:101220001C32CB69B3B9D0F80C329343C0F80C32FE
:101230008C894B6864F31F434C6900EBC404C4F809
:1012400040320C890B6864F31F434C6900EBC40403
:10125000C4F84432CB69012B16D1D0F80C321343B9
:10126000C0F80C320C884B6864F31F434C6900EBE8
:10127000C404C4F840320C89CB6864F31F434C6942
:1012800000EBC404C4F844328B69002BD0F804325C
:101290000ED01343C0F804320B69002BD0F814327F
:1012A00008D01343C0F81432096A012904D008E0B9
:1012B0009343EFE79343F5E7D0F81C121143C0F8CE
:1012C0001C12D0F8001221F00101C0F80012002019
:1012D00010BD000000640040704730B590F8204019
:1012E000012C05D0022C03D0416A41F480215DE03D
:1012F0000468002955D02469A40754D04FF4D87449
:10130000056804EB01142D5915F004059560056876
:101310002D594ED0ED08556005682C59C4F3400492
:10132000D4604FF4DA74056804EB01142D5905F00C
:101330000F05156105682D59C5F3072595610568E9
:101340002C59240C54614FF4DC72046802EB011236
:10135000A4581C700468A458240A5C700468A4583B
:10136000240C9C700468A258120EDA704FF4DE72DE
:10137000046802EB0112A4581C710468A458240AE2
:101380005C710468A458240C9C710468A258120E65
:10139000DA71006881B1016941F02001016100202A
:1013A00030BDE468A8E7416A41F4001141620120C0
:1013B00030BD6D0D1560AFE7C16841F02001C1601F
:1013C000EDE70246002092F82010012901D0022901
:1013D0000CD111688A68520100D501208A68120177
:1013E00000D5401C8968C90000D5401C70472DE914
:1013F000F05F0546006800244669D0F804908768CD
:10140000D0F80CB0D0F810A0D0F81880F10748D070
:10141000F90714D001218160B80703D5284600F0F0
:10142000EAFA0CE0780702D54FF4006407E03807C9
:1014300002D54FF4805402E0284600F0DBFAF805AC
:1014400016D529684FF480708860B80503D5284602
:1014500000F0D3FA0CE0780502D544F4005407E01C
:10146000380502D544F4804402E0284600F0C4FA6E
:10147000F80316D529684FF480308860B80303D587
:10148000284600F0BCFA0CE0780302D544F400448E
:1014900007E0380302D544F4803402E0284600F027
:1014A000ADFA300707D55FEACB6004D52968102074
:1014B00044F40074C86070074FF0080707D55FEA6E
:1014C0000B7004D52868C760284600F0C9F9B0073A
:1014D00006D52868C068800702D0284600F0C2F907
:1014E000700607D55FEACA6004D52968102044F465
:1014F00080640861B00607D55FEA0A7004D52868E1
:101500000761284600F046FAF00606D5286800690B
:10151000800702D0284600F03EFAB00308D55FEA03
:10152000C96005D5296810204860284600F034FAC3
:10153000F00307D55FEA097004D52868476028469C
:1015400000F05EFA300446D55FEA497040D5F005F8
:1015500004D55FEAC87001D044F00104B00504D599
:101560005FEA887001D544F00204700504D55FEA93
:10157000487001D544F00404300529D518F0700FE7
:1015800026D008F07000402815D006DC102809D0BD
:1015900020280AD0302816D10AE050280ED0602822
:1015A00011D10EE044F008040DE044F010040AE00C
:1015B00044F0200407E044F0400404E044F08004D8
:1015C00001E044F480742868816921F07001816130
:1015D000296804204860002C05D0686A20436862AE
:1015E0002846FFF779FEBDE8F09F70B5040003D0F0
:1015F00094F8200010B104E0012070BD204600F0F6
:1016000081F82068016821F00201016000F0B8FC57
:101610000546052604E000F0B3FC401B0A2811D85B
:10162000206840688007F6D42068016841F0010115
:10163000016000F0A5FC05460BE000F0A1FC401B9A
:101640000A2806D9606A40F40030606284F820609D
:10165000D2E720684068C007EFD0207E01282068CC
:1016600001683DD021F080010160607E0128206882
:10167000016838D021F040010160A07E0128206877
:10168000016833D021F020010160E07E012820684C
:1016900001682ED041F010010160207F01282068F0
:1016A000016829D021F008010160607F01282068CD
:1016B000016824D021F004010160D4E9020108434B
:1016C000D4E90412114308436168491E08432168A4
:1016D000C86100206062012084F82000002070BDF5
:1016E00041F08001C0E741F04001C5E741F0200131
:1016F000CAE721F01001CFE741F00801D4E741F03B
:101700000401D9E7F0B587B0044614216846FEF716
:1017100001FE4E4B4E48DFF830E11968D4F800C0A6
:101720004B4A03250226092710300024491CF445A2
:101730003AD11960012907D1016841F000710160B7
:10174000006800F000700590106840F0080010601C
:101750001068CDE9005600F00800CDE90470694634
:101760003C48CDE9024500F02DFB00220521132065
:1017700000F092FC132000F081FC002205211420CF
:1017800000F08AFC142000F079FC002205211520CD
:1017900000F082FC152000F071FC002205211620CB
:1017A00000F07AFC16204BE0DFF8ACE0F44549D1BC
:1017B000D0F800C04CF0806CC0F800C0D0F800C079
:1017C00001290CF0806CCDF814C0196007D10168B4
:1017D00041F000710160006800F000700590106831
:1017E00040F002001060106802AB00F002000590AB
:1017F0004FF44050CDE9000683E8B0006946174831
:1018000000F0E0FA002205213F2000F045FC3F20D7
:1018100000F034FC00220521402000F03DFC402077
:1018200000F02CFC00220521412000F035FC412075
:1018300000F024FC00220521422000F02DFC422073
:1018400000F01CFC07B0F0BD0064004084000020E4
:1018500030380240000C02400068004000040240A2
:10186000704700002DE9F041454F0124454D0646E3
:10187000B84241D1444B454A0021FFF72EFD434871
:1018800040F203220068A0F2032190420ED008DC4F
:10189000032826D0A0F50071013907D0012924D1F1
:1018A00004E0012902D002291FD112E0364E401E69
:1018B000761EC0B23549307000EB4000C03901EBF4
:1018C000C000721C2E4904F0DBFD30782844C4703F
:1018D0000BE02E482C4A3146483804F0D1FDEC711B
:1018E00003E0294902F036FAEC723868416941F0A8
:1018F00002014161BDE8F081254FBE42FAD1224B81
:10190000224A103334320021FFF7E7FCDFF87C80F5
:1019100008F13408D8F80000012817D002281AD09E
:10192000A0F5007006381ED00128DED1A8F16401B0
:101930004869421C4A61144A322802F110023946B1
:10194000A8F1640018D804F0C4FD17E00E49103166
:1019500002F004FD2C700C49D8F80000103102F0A0
:10196000FDFC6C70C1E7084A084810323146603807
:1019700004F086FD2C72B8E704F082FD6C72B4E7C7
:1019800038410020505C0020AD0000207050002045
:1019900060410020704770477047000070B50446F2
:1019A00090F82000012804D0606A40F400206062B2
:1019B00018E0022084F820002068016821F001016D
:1019C000016000F0DDFA05460EE000BF00F0D8FA35
:1019D000401B0A2808D9606A40F400306062052084
:1019E00084F82000012070BD20684068C007EDD158
:1019F000606270BD704770477047704770477047AE
:101A000070472DE9F0410446876D00F0B9FA0646AB
:101A100094F835000025022806D08020606584F8FF
:101A200034500120BDE8F0812068016821F01601E2
:101A300001602068416921F080014161206C08B992
:101A4000A06C20B12068016821F0080101602068C5
:101A5000016821F0010101600BE000F091FA801BA8
:101A6000052806D92020606504F8345F03206070E3
:101A7000D8E720680068C007EFD194F85C103F20D9
:101A80008840B86004F8345F012060700020C9E726
:101A900090F83510022903D080214165012070475C
:101AA000052180F835100068016821F0010101600E
:101AB000002070472DE9F84304464FF00009CDF8A7
:101AC000009063484FF41651A56D0068B0FBF1F724
:101AD0002E6894F85C10082000FA01F131420FD012
:101AE00021680A6852070BD50A6822F004020A60CE
:101AF00094F85C108840A860606D40F0010060655B
:101B000094F85C104FF0010808FA01F0304208D058
:101B100021684969090604D5A860606D40F002009B
:101B2000606594F85C1004208840304208D0216839
:101B30000968890704D5A860606D40F004006065FD
:101B400094F85C1010208840304218D02168096851
:101B5000090714D5A86020680168490304D5006806
:101B6000000308D5A16C07E00168C90503D401682A
:101B700021F008010160216C09B12046884794F8E2
:101B80005C1020208840304231D021680968C906A5
:101B90002DD5A86094F8350005282068016806D086
:101BA000490347D5006800031DD4616C1CE021F097
:101BB000160101602068416921F080014161206CBB
:101BC00008B9A06C20B12068016821F0080101600B
:101BD00094F85C103F208840A86084F8349084F822
:101BE0003580216D1FE0E16B09B120468847606DAB
:101BF00000282BD0606DC00714D0052084F8350074
:101C00002068016821F0010101600098401C0090EB
:101C1000B84203D820680068C007F6D184F8349031
:101C200084F83580E16C002910D001B02046BDE871
:101C3000F04308470168C905D5D4016821F01001B7
:101C4000016084F8349084F83580CCE7BDE8F883EF
:101C5000800000202DE9F041044600F091F906468D
:101C60005CB1002584F83450022084F835002068E7
:101C7000016821F0010101600DE00120BDE8F08163
:101C800000F07EF9801B052805D92020606503201F
:101C900084F83500F2E720680068C007F0D12268B8
:101CA000116820480140D4E901031843D4E9033600
:101CB0003343184363691843A3691843E36918431E
:101CC000236A18430843616A042903D1D4E90B133A
:101CD00019430843106020684069666A20F00701D4
:101CE00030460E43012704280CD1A06A0643E06A5F
:101CF00040B12046FEF74CFF20B14020606584F8DB
:101D00003570BAE7206846612046FEF72DFF94F84B
:101D10005C203F2191408160656584F8357000202A
:101D2000ACE700003F8010F02DE9F0410446866DDD
:101D300090F83400002501280DD0012084F83400EB
:101D400094F835700020012F07D084F83400022564
:101D50002846BDE8F0810220FBE7022784F83570B1
:101D600060652046FEF73EFF94F85C103F208840F7
:101D7000B0602068016841F0160101602068416987
:101D800041F080014161206C20B12068016841F080
:101D9000080101602068016841F001010160D7E796
:101DA00070B5044600F0ECF80546601C02D004480B
:101DB0000078044400F0E4F8401BA042FAD370BD60
:101DC000000000202DE9F84FDFF87CB100224FF031
:101DD00001084FF0030A4FF00F090BF1040E00BF8A
:101DE0000B6808FA02F42340A3426ED14D68022D1D
:101DF00001D0122D0ED1D50800EB850CDCF8205057
:101E00005607F70E09FA07F6B5430E69BE402E4392
:101E1000CCF82060066855000F790AFA05FC07F037
:101E2000030726EA0C06AF40374307604E68012ED1
:101E300005D0022E03D0112E01D0122E0ED18668AD
:101E4000CF6826EA0C06AF40374387604668A64352
:101E50000C79C4F30014944034434460C6688C6821
:101E600026EA0C06AC403443C4604C68E40065D5F7
:101E7000364C256845F480452560246822F003052A
:101E800004F480440094324C2E19D6F80848950783
:101E90002F0F09FA07F5AC432E4DA84201D10025BA
:101EA00024E02D4DA84201D101251FE02B4DA84271
:101EB00001D102251AE02A4DA84201D1032515E0DF
:101EC000284DA84202D1042510E037E0264DA84253
:101ED00001D105250AE0254DA84201D1062505E0DE
:101EE000234DA84201D1072500E00825BD40254328
:101EF000C6F80858DBF800405D464E689C43F60380
:101F000000D51C432C60DEF8004075464E689C43AB
:101F1000B60300D51C432C600B4D08352C684E6869
:101F20009C43F60200D51C432C60074D0C352C68F1
:101F30004E689C43B60200D51C432C60521C102AEC
:101F4000FFF44EAFBDE8F88F003C0140443802403A
:101F5000003001400000024000040240000802403E
:101F6000000C024000100240001402400018024021
:101F7000001C02400AB1816170470904FBE70000C0
:101F80000148806870470000000000200248816816
:101F90000278114481607047000000200B4810B5A2
:101FA000016841F400710160016841F480610160E1
:101FB000016841F480710160032000F08DF8002079
:101FC00000F006F800F03EF8002010BD003C024092
:101FD00010B5014688B00022192000F05DF81920E4
:101FE00000F04CF813480024016841F4003101600E
:101FF000006805A900F400300690684600F016F964
:1020000000F044F90C494000B0FBF1F10C480B4AD8
:10201000491E026040F2E732C0E90324C0E901141E
:1020200000F01BFB10B1012008B010BD044800F007
:1020300043FBF9E74438024040420F0000440140AE
:10204000704F00200C4882B0016841F4804101606B
:10205000006800F4804000900748001F016841F0CC
:10206000805101600068002200F0805000900F2134
:10207000901E02B000F010B844380240002809DB7E
:1020800000F01F02012191404009800000F1E02092
:10209000C0F8001170470000F0B40E4B1B680C46EE
:1020A000C3F30223C3F10705042D00D90425191D2C
:1020B000072901D2002300E0DB1E012606FA05F104
:1020C000491E214099409E40761E16403143F0BC87
:1020D00002F015BE0CED00E0064900F007020868AA
:1020E0004FF6FF03184040EA0220034A10430860FD
:1020F000704700000CED00E00000FA052DE9F04704
:102100000E46050065D0DFF81481D8F80000F7B25C
:1021100000F00F00B04207D288F80070D8F8000035
:1021200000F00F00B04254D128683D4C810712D511
:10213000400703D5206840F4E0502060287800076D
:1021400003D5206840F4604020602068A96820F032
:10215000F000084320602878C0072DD03049686817
:102160000839012812D0022813D0032811D0096899
:10217000890700292DDA216821F00301014321603C
:10218000FFF7FEFE814641F2883A0EE009688903B6
:10219000EFE709688901ECE7FFF7F2FEA0EB090120
:1021A000514502D90320BDE8F0872068696800F036
:1021B0000C00B0EB810FEFD1D8F80010404601F0D1
:1021C0000F01B14207D90770006800F00F00B0425C
:1021D00001D00120E7E72878400705D52068E968A5
:1021E00020F4E050084320602878000706D52068D6
:1021F000296920F4604040EAC100206000F056F8F0
:102200002168084AC1F30311515CC84006490860BF
:102210000020FFF7DDFE0020C5E70000003C024083
:1022200008380240D89C0008800000200F2202607D
:102230000C4A136803F003034360136803F0F003D0
:102240008360136803F4E053C36012684FF4E053F3
:1022500003EAD20202610448006800F00F0008603F
:102260007047000008380240003C0240044805491D
:1022700000680968044AC1F38221515CC840704774
:102280008000002008380240E89C00080448054906
:1022900000680968044AC1F34231515CC840704784
:1022A0008000002008380240E89C0008104810B563
:1022B000006810F00C010F4818D0042916D0082926
:1022C00014D10B4C241F216801F03F0221682168C2
:1022D0000023C1F38811A1FB0001FDF7D1FF2168A4
:1022E000C1F30141491C4900B0FBF1F010BD0000F1
:1022F000083802400024F4002DE9F84F050076D09C
:102300002878DFF8F8B2BE4CC00749D0DBF80010DF
:102310005846C1F38101012908D00068C0F381004B
:1023200002280AD1201D0068400206D520688003DB
:1023300036D568680028E2D032E06868B0F5803FA2
:1023400010D0B0F5A02F206810D020F4803020608D
:10235000206820F4802020606868A0B1FFF710FE9C
:1023600006460CE0206840F48030F4E740F480201A
:102370002060F7E7FFF704FE801B642873D820680D
:102380008003F7D50CE0FFF7FBFD064605E000BF34
:10239000FFF7F6FD801B6428F0D820688003F7D48F
:1023A0002878DFF8608280074FF000093ED5DBF81F
:1023B0000010584611F00C0F09D00068C0F38100DE
:1023C00002280BD18D48001F0068400206D4206807
:1023D000800715D5E868012809D111E0E868B8B18F
:1023E0000120C8F80000FFF7CBFD064605E002E13A
:1023F000FFF7C6FD801B0228C0D820688007F7D5EC
:102400002068296920F0F80040EAC10020600DE052
:10241000C8F80090FFF7B4FD064604E0FFF7B0FDF2
:10242000801B02281FD820688007F7D4287800076F
:1024300022D5724E744869696C3671B10121016010
:10244000FFF79EFD074604E0FFF79AFDC01B022838
:1024500009D830688007F7D50EE0C0F80090FFF784
:102460008FFD074605E083E0FFF78AFDC01B0228C9
:102470007ED830688007F7D42878400768D5DFF821
:102480007CA100270AF1380ADAF80000C0000BD45A
:10249000DAF8001041F08051CAF80010DAF80000B4
:1024A000012700F080500090584E3068C00510D4CD
:1024B000306840F480703060FFF762FD009005E006
:1024C000FFF75EFD0099401A022851D83068C00518
:1024D000F6D54A4EA868683601280FD0052830681E
:1024E00010D020F001003060306820F0040030602F
:1024F000A868B8B1FFF744FD00900FE0306840F0E5
:102500000100F4E740F004003060F7E7FFF738FD22
:102510000099411A41F28830814264D830688007BE
:10252000F4D50EE0FFF72CFD009007E0FFF728FD43
:102530000099411A41F28830814254D830688007AE
:10254000F4D42FB1DAF8001021F08051CAF800104D
:10255000A869C0B3DBF80010C1F3810102294AD099
:102560000228484607D0C8F86000FFF709FD00E0E0
:1025700039E005463AE04746C8F86000FFF700FD3D
:10258000064604E0FFF7FCFC801B02282BD82068DD
:102590008001F7D4D5E907010843A96A1C4A490814
:1025A00002EB01416A6A41EA8211084395F82C1056
:1025B00040EA01611148001F016001203866FFF701
:1025C000DFFC054605E014E0FFF7DAFC401B0228BB
:1025D00009D820688001F7D50BE000BFFFF7D0FCD9
:1025E000401B022802D90320BDE8F88F2068800133
:1025F000F4D40020F8E70120F6E700000838024094
:102600000038024000004742800E47420070004000
:102610000000FFFF7047704770B590F83C20012A1A
:1026200019D0012400F83C4F0222427050F83C3C83
:102630005A689D6822F070060A684968324325F09E
:10264000800529435A6050F83C2C91604470002169
:102650000170084670BD022070BD10B5040003D0A3
:1026600094F83D0010B107E0012010BD002084F86F
:102670003C00204600F00CF8022084F83D00211DAB
:10268000206801F037FD012084F83D00002010BDD6
:1026900008B500680649884208D10648016841F03B
:1026A00080010160006800F08000009008BD00001B
:1026B000001C0040403802400168CA6842F0010234
:1026C000CA600068816801F00701062903D001682B
:1026D00041F00101016000207047704770B5044669
:1026E000006801694FF00005C943890715D4C16826
:1026F000C943890711D4E91E0161012020772068B0
:1027000080698007204602D0FFF7E7FF04E000F071
:1027100003F9204600F0BCF9257720680169C94318
:10272000490717D4C168C943490713D46FF004019E
:102730000161022020772068806910F4407F2046E4
:1027400002D0FFF7CAFF04E000F0E6F8204600F0F0
:102750009FF9257720680169C943090716D4C16824
:10276000C943090712D46FF00801016104202077E2
:102770002068C0698007204602D0FFF7AEFF04E062
:1027800000F0CAF8204600F083F925772068016937
:10279000C943C90617D4C168C943C90613D46FF029
:1027A00010010161082020772068C06910F4407F83
:1027B000204602D0FFF791FF04E000F0ADF820467C
:1027C00000F066F9257720680169C943C90708D177
:1027D000C168C943C90704D1891E0161204600F0C0
:1027E0007BF920680169C943090609D4C168C94356
:1027F000090605D46FF0800101612046FFF70AFF4A
:1028000020680169C943490609D4C168C94349061A
:1028100005D46FF040010161204600F067F920689F
:102820000169C94389060BD4C168C943890607D425
:102830006FF0200101612046BDE87040FFF7EBBE5C
:1028400070BD000030B587B0044614216846FDF71E
:1028500061FD2468002229490223B4F1804F11D080
:10286000274D2848AC4221D10C6844F002040C608A
:10287000096801F00201059103210091CDE90132BF
:10288000694624E0086840F0010008600868009389
:1028900000F001000590CDE901320120CDE90320CF
:1028A00069461948FFF78EFA07B030BD174DAC42A4
:1028B00010D1086840F0080008600868694600F018
:1028C00008000590A0140090CDE901321048CDE930
:1028D0000323E7E70F4DAC42E6D10C6844F0020455
:1028E0000C60096801F002010591E9000091CDE951
:1028F00001320921CDE903216946D3E7303802408E
:1029000000040040000402400000024000080040B3
:10291000000C024000180040704770B5044690F863
:102920003C000D4601280DD0012684F83C600220B1
:1029300084F83D0042B1042A18D0082A2AD00C2A73
:102940004DD139E0022070BD206801F045FC2068BF
:10295000816941F0080181612068816921F00401E9
:102960008161206881692A69114311E0206801F0C2
:1029700063FC2068816941F400618161206881699C
:1029800021F480618161206881692A6941EA02211C
:10299000816124E0206801F085FC2068C16941F074
:1029A0000801C1612068C16921F00401C16120688A
:1029B000C1692A69114311E0206801F0A7FC206871
:1029C000C16941F40061C1612068C16921F480617D
:1029D000C1612068C1692A6941EA0221C16184F8A4
:1029E0003D60002084F83C0070BD10B5040003D0A9
:1029F00094F83D0010B107E0012010BD002084F8DC
:102A00003C00204600F00CF8022084F83D00211D17
:102A1000206801F06FFB012084F83D00002010BD0C
:102A200008B501681648B1F1804F0BD0154A9142A4
:102A300010D1016841F002010160006800F002005D
:102A4000009008BD016841F001010160006800F0DC
:102A50000100F5E70C4A914207D1016841F00401F9
:102A60000160006800F00400EAE7084A9142E8D1FA
:102A7000016841F040010160006800F04000DFE7BC
:102A800040380240000400400008004000180040A8
:102A90007047000010B504460068012201F08EFB6B
:102AA0000B492068884202D00A49884203D1416C10
:102AB00041F4004141642068816801F00701062962
:102AC00003D0016841F001010160002010BD000049
:102AD000000001400004014000680349884201D120
:102AE000FFF754BA7047000000440140704710B52A
:102AF00004460068416994F83920C1F3C011212AC5
:102B00000BD151B1416921F080014161206B08B1C5
:102B1000FEF777FF204601F027FE2068416994F810
:102B20003A20C1F38011222A0BD151B1416921F021
:102B300040014161606B08B1FEF763FF204601F080
:102B400005FE002010BD704770B50268044610688D
:102B5000D168536910F00F0F50D003F0010501F454
:102B6000907635435DD0C20705D0CA0503D5E26B28
:102B700042F00102E263420705D5DA0703D0E26BB7
:102B800042F00202E263820705D5DA0703D0E26B66
:102B900042F00402E263020705D5DA0703D0E26BD4
:102BA00042F00802E263E26B002A33D0800604D5CB
:102BB000880602D5204601F0E0FD20684069E16BFF
:102BC000C0F38010090700D428B3204601F0BEFDF1
:102BD0002068416949061AD5416921F040014161E7
:102BE000606BA0B11B490165606BFEF751FF0028C7
:102BF00010D0606B016DBDE870400847830610D5AA
:102C00008B060ED52046BDE8704001F0B6BD2046CB
:102C1000FFF799FF70BD2046FFF795FF0020E063A6
:102C200070BD030606D50B0604D52046BDE87040EE
:102C300001F044BF4006F3D54806F1D5D1682046DF
:102C400021F04001D160202184F8391000F056FBBA
:102C500070BD00007546000870B5040004D094F8FB
:102C60003900002510B106E0012070BD84F838500D
:102C7000204600F023F8242084F839002068C16839
:102C800021F40051C160204601F0C2FD20680169B5
:102C900021F4904101612068416921F02A014161DC
:102CA0002068C16841F40051C160E563202084F8C8
:102CB000390084F83A00002070BD00002DE9F04F83
:102CC00087B0044614216846FDF724FBFF48FE4AFE
:102CD00010382368DFF8F4B3012702210025061518
:102CE0004FF003084FF0080E4FF040094FF0006A14
:102CF00093426FD1DBF8003043F40023CBF800306F
:102D0000DBF8002002F400220592026842F0010282
:102D10000260026802F001020592026842F00402B9
:102D200002600068C34600F0040005900220CDE96F
:102D30000070CDE9027BF0466946E548CDF810E029
:102D4000FFF740F87000009001AA0220CDF8108033
:102D500082E881086946DF48FFF734F8DFF87C83B2
:102D6000DD494046C8F80010C0E901A5C0E9035696
:102D7000C8F81450C8F81850C8F81C50C8F82050AB
:102D80005746C8F82450FEF765FF08B1FEF723F850
:102D9000D24DD148C4F8348060353030C8F838405E
:102DA00085E881020020C5E903066861A861E86141
:102DB000286268622846FEF74DFF08B1FEF70BF85F
:102DC0002563002205213420AC63FFF765F9342028
:102DD00073E0FFE7C24A934275D1DBF8003000256B
:102DE00043F48013CBF80030DBF8002002F48012AB
:102DF0000592026842F004020260026802F00402D6
:102E00000592026842F0080202600068029700F032
:102E1000080005904FF48050CDE900010820CDE96D
:102E200003808B466946AB48FEF7CCFF0420CDE912
:102E3000000B02970820CDE903806946A948FEF7F8
:102E4000C1FFDFF89882A44908F1C0083039404634
:102E5000C8F80010C0E901A5C0E90356C8F814502D
:102E6000C8F81850C8F81C50C8F820505746C8F881
:102E70002450FEF7EFFE08B1FDF7ADFF96489A4DDE
:102E8000C4F834807830C8F8384085E881020020E2
:102E9000C5E903066861A861E8612862686228469E
:102EA000FEF7D8FE08B1FDF796FF25630022052145
:102EB0003520AC63FFF7F0F83520FFF7DFF807B0F7
:102EC000BDE8F08FFFE7814ADFF820C2121D63459D
:102ED0005BD11368AB4643F010031360126802F035
:102EE00010020592026842F001020260006800F0E0
:102EF000010005904FF4C0608DE883010720049025
:102F000069467348FEF75EFFDFF8DC81784908F117
:102F100060084046C8F80010C0E901A5C0E90356A2
:102F2000C8F81450C8F81850C8F81C50C8F82050F9
:102F30005746C8F82450FEF78DFE08B1FDF74BFF49
:102F4000694D6B48C4F83480C0357830C8F83840D3
:102F500085E88102C5E903B6C5F814B0C5F818B014
:102F6000C5F81CB0C5F820B02846C5F824B0FEF757
:102F700071FE08B1FDF72FFF2563002205212520F2
:102F8000AC63FFF789F8252097E7DFF868C1634550
:102F90004ED1DBF8003043F40033CBF80030DBF8DF
:102FA000002002F400320592026842F00102026041
:102FB000006800F0010005900C208DE883010720D7
:102FC000049069464248FEF7FDFE43484A4F4830A8
:102FD0003860C7E901A5C7E903567D61BD61FD61A0
:102FE0003D6238467D62FEF735FE08B1FDF7F3FE1F
:102FF0006763BC63404F384860376030C7F808905B
:10300000C7E903567D61BD61FD613D627D62C7E92F
:10301000000A3846FEF71EFE08B1FDF7DCFE276306
:10302000002205212620BC63FFF736F8262044E75E
:10303000DFF8C8C063457CD1DBF80030002543F4DD
:103040008023CBF80030DBF8002002F480220592C8
:10305000026842F002020260006800F0020005907F
:103060004FF440608DE883010720049069462448AE
:10307000FEF7A8FEDFF88080174908F1C00818396C
:103080004046C8F80010C0E901A5C0E90356C8F8D9
:103090001450C8F81850C8F81C50C8F820505746AB
:1030A000C8F82450FEF7D6FD08B1FDF794FE0A4893
:1030B000144DC4F834801830C8F8384085E88102CF
:1030C0000020C5E9030620E0004C004040380240E3
:1030D000000002400008024040600240F04A002028
:1030E00000500040000C0240104C00200010014035
:1030F0004064024000440040304D00200048004041
:1031000000040240504E002013E06861A861E861AD
:10311000286268622846FEF79DFD08B1FDF75BFE58
:103120002563002205212720AC63FEF7B5FF272089
:10313000C3E6DFF89CC063457FF4C1AE136843F07B
:1031400020031360126802F020020592026842F028
:1031500004020260006800F004000590C0208DE8C1
:10316000834169461B48FEF72DFE1C4F1A484FF05D
:1031700020683860C7E90185C7E903567D61BD61F4
:10318000FD613D6238467D62FEF764FD08B1FDF7E2
:1031900022FE6763BC63114F0F4860377830C7E980
:1031A00003567D61BD61FD613D627D6287E801037B
:1031B0003846FEF74FFD08B1FDF70DFE27630022EC
:1031C00005214720BC63FEF767FF472075E6000036
:1031D000001401400008024028640240B04E002064
:1031E000F8B5044690F83A0020283CD1C1B3BAB3F0
:1031F00094F83800012836D0012084F83800A16204
:10320000A2850025E563222084F83A00636B174805
:10321000D863636B16481864636B1648D864606B98
:10322000134605650846666B216802463046091D4F
:10323000FEF77AFD206801684168009184F83850F3
:10324000C16841F48071C1602068416941F00101A9
:1032500041612068416941F0400141610020F8BDB1
:10326000FFE70120FBE70220F9E70000CF46000856
:103270000B470008854600087047704770B5044644
:1032800090F83900202830D169B362B394F838003F
:1032900001282AD0012084F838002162A284E28427
:1032A0000025E563212084F83900236B1048D8639A
:1032B000236B10481864236B0F48D864206B1346A7
:1032C00005652668206B321DFEF72EFD21686FF024
:1032D0004000086084F838502068416941F080015E
:1032E0004161002070BD012070BD022070BD000052
:1032F0001547000843470008854600087047704797
:10330000FEE7D0ED071AD0ED000A21EEA01A80EDFD
:10331000011AD0ED090A90ED052A41EE820AC0EDAE
:10332000030AD0ED0A1A30EEA12AC0EE821A30EE5E
:10333000412AB0EE410AB7EE001AC0ED061A31EE8E
:10334000611A01EE820A61EE200A80ED020AC0EDE8
:10335000040AC0ED050A80ED000A7047DFED271A68
:1033600010B5F0EE610AB7EE000A2548FDF72AFB1A
:103370002348F2EE040AB7EE000A3030FDF722FBD4
:103380001F48DFED200AB7EE000A9030FDF71AFB68
:103390001B48DFED1D0AB7EE000AC030FDF712FB37
:1033A0001748F0EE610AB7EE000A6030FDF70AFB3D
:1033B0001348F0EE610AB7EE000AF030FDF702FBA9
:1033C000DFED121AB7EE000A1148F0EE610AFDF7C0
:1033D000F9FA0F48F0EE610AB7EE000A3038FDF74F
:1033E000F1FA0B480B493030FDF704FB0949084856
:1033F000B431BDE810409C30FDF7FCBA000020421B
:10340000605C00200000E4420000C8430000C842A5
:10341000B05D0020B00100200F4810B50D490160DB
:103420000621416000214FF400328160C0E903129F
:10343000120142610176012242768176C1760177DE
:103440004177FEF7D2F8002803D0BDE81040FDF721
:10345000C2BC10BD00640040384100200F4810B5C8
:103460000D4901600621416000214FF40032816066
:10347000C0E903121201426101760122427681768F
:10348000C17601774177FEF7B0F8002803D0BDE898
:103490001040FDF7A0BC10BD006800406041002056
:1034A000394808B5016841F400110160016801F470
:1034B00000110091016841F4800101600068002260
:1034C00000F48000009005210B20FEF7E5FD0B20A5
:1034D000FEF7D4FD002205210C20FEF7DDFD0C20B7
:1034E000FEF7CCFD002205210D20FEF7D5FD0D20B5
:1034F000FEF7C4FD002205210E20FEF7CDFD0E20B3
:10350000FEF7BCFD002205210F20FEF7C5FD0F20B0
:10351000FEF7B4FD002205211020FEF7BDFD1020AE
:10352000FEF7ACFD002205211120FEF7B5FD1120AC
:10353000FEF7A4FD002205212F20FEF7ADFD2F2070
:10354000FEF79CFD002205213920FEF7A5FD39205C
:10355000FEF794FD002205213A20FEF79DFD3A205A
:10356000FEF78CFD002205214520FEF795FD452044
:10357000FEF784FD002205214620FEF78DFDBDE803
:1035800008404620FEF77ABD3038024010B5C0B082
:1035900005F086FA1C2233496846FCF7A2FE00219A
:1035A000684603F0F2FD304C2E491C2220621C318B
:1035B00007A8FCF796FE002107A803F0E6FD2949BD
:1035C00020601C2238310EA8FCF78BFE00210EA8CB
:1035D00003F0DBFD2349E0611C22543115A8FCF700
:1035E00080FE002115A803F0D0FD1E4960601C225A
:1035F00070311CA8FCF775FE00211CA803F0C5FD66
:103600001849A0601C228C3123A8FCF76AFE002117
:1036100023A803F0BAFD134920611C22A8312AA86F
:10362000FCF75FFE00212AA803F0AFFD0D49E06022
:103630001C22C43131A8FCF754FE002131A803F04C
:10364000A4FD0849A0611C22E03138A8FCF749FE1E
:10365000002138A803F099FD606105F041FA40B0FF
:1036600010BD0000F09C0008880000202DE9F04FFC
:1036700087B014216846FCF74DFE3C4800240168E1
:1036800041F080010160016801F08001059101684D
:1036900041F001010160016801F00101059101683B
:1036A00041F002010160016801F002010591016829
:1036B00041F010010160016801F0100105910168FD
:1036C00041F008010160016801F0080105910168FD
:1036D00041F0040101600068DFF8948000F004000C
:1036E0004FF480550590002229464046FEF742FCE3
:1036F000DFF880904FF47066002231464846FEF7AE
:1037000039FCDFF874A0EF00002239465046FEF77E
:1037100031FCDFF868B00022C0215846FEF72AFCD1
:1037200000950125CDE90154694640460394FEF712
:1037300049FB0096CDE90154694648460394FEF7DB
:1037400041FB0097CDE90154694650460394FEF7CA
:1037500039FBC0200090CDE90154694658460394D6
:10376000FEF730FB07B0BDE8F08F000030380240B4
:1037700000100240000C0240000002400004024021
:1037800010B588B01C216846FCF7C4FD16481549E1
:10379000002401605321C0E9011444F61F61C0E90F
:1037A00003148461FFF721F908B1FDF714FB6020D1
:1037B000CDE900040294002269460B480494FFF707
:1037C000ACF808B1FDF707FB042269460648FFF78D
:1037D000A4F808B1FDF7FFFA0348FFF733F808B083
:1037E00010BD000000180040F04800200B4810B544
:1037F0000949016053214160002144F61F62C0E97C
:10380000021201618161FEF728FF002803D0BDE8A4
:103810001040FDF7E0BA10BD001C00403049002008
:1038200010B58AB0002407941C2168460894FCF760
:1038300071FD16484FF0804101605321C0E9011429
:1038400044F61F61C0E903148461FFF7CEF808B1A4
:10385000FDF7C1FA079407A90C480894FEF7DCFEAF
:1038600008B1FDF7B8FA6020CDE900040294042203
:10387000694606480494FFF750F808B1FDF7ABFA23
:103880000248FEF7DFFF0AB010BD000030480020FC
:1038900010B58AB0002407941C2168460894FCF7F0
:1038A00039FD1B48194901605321C0E9011444F650
:1038B0001F61C0E903148461FFF797F808B1FDF7B1
:1038C0008AFA079407A912480894FEF7A5FE08B1E2
:1038D000FDF781FA602000904FF44870CDE90104B3
:1038E000082269460A480494FFF717F808B1FDF763
:1038F00072FA0C2269460648FFF70FF808B1FDF787
:103900006AFA0348FEF79EFF0AB010BD00040040AB
:103910007048002010B58AB0002407941C21684626
:103920000894FCF7F7FC1748154901605321C0E9DA
:10393000011444F61F61C0E903148461FFF755F8D0
:1039400008B1FDF748FA079407A90E480894FEF756
:1039500063FE08B1FDF73FFA602000904FF4487015
:10396000CDE901040022694606480494FEF7D5FF1C
:1039700008B1FDF730FA0348FEF764FF0AB010BD46
:1039800000080040B04800200C4810B50A4901600A
:103990004FF4E1314160002181600C22C160C0E937
:1039A00004128161C161FFF757F9002803D0BDE817
:1039B0001040FDF710BA10BD004C004070490020C7
:1039C0000C4810B50A4901604FF47A31416000217A
:1039D00081600C22C160C0E904128161C161FFF7FE
:1039E0003BF9002803D0BDE81040FDF7F4B910BD45
:1039F00000500040B04900200D4810B50B4901604F
:103A00000C49416000214FF480628160C0E90312DB
:103A10000C22C0E90521C161FFF71EF9002803D07F
:103A2000BDE81040FDF7D7B910BD000000100140FF
:103A3000F0490020A08601000C4810B50A49016039
:103A40004FF4E1314160002181600C22C160C0E986
:103A500004128161C161FFF7FFF8002803D0BDE8BF
:103A60001040FDF7B8B910BD00440040304A0020B6
:103A70000C4810B50A4901604FF47A3141600021C9
:103A800081600C22C160C0E904128161C161FFF74D
:103A9000E3F8002803D0BDE81040FDF79CB910BD45
:103AA00000480040704A00200C4810B50A490160E7
:103AB0004FF4E1314160002181600C22C160C0E916
:103AC00004128161C161FFF7C7F8002803D0BDE887
:103AD0001040FDF780B910BD00140140B04A00202D
:103AE000FEE7704730B4034C8466034CC46630BCB8
:103AF00003F06CBCCD730008DB7300080B480E4963
:103B0000007800EE100A0A48B8EE400A80ED040A78
:103B1000B5EE000A80ED060A9FED060A81ED160A51
:103B20009FED060A80ED050A70470000D2000020D4
:103B3000D050002000002042A0520020000070421F
:103B40003D493E484A68026009893D4A818000EE4D
:103B5000901A128B00EE102AF8EE600A394AB8EE7D
:103B6000400A10EE901A80ED040AC0ED050A914259
:103B700003DBDFED350AC0ED050A3448007DC106E0
:103B800033480CD52D49334B24314968994206DD21
:103B90009FED310A80ED150A9FED300A0AE010EE24
:103BA000101A2F4B994208D19FED2E0A80ED150A6D
:103BB0009FED2D0A80ED160A704710EE101A2B4B60
:103BC000DFED2B0A994202D19FED2A0A06E010EEA2
:103BD000101A294B994206D19FED280A80ED150A4B
:103BE000C0ED160A704710EE101A914202D19FEDF7
:103BF000240AF3E710EE101A224A914202D19FEDF7
:103C0000220AEBE710EE101A204A914202D19FEDF2
:103C1000200AE3E710EE101A1E4A914204D010EE7B
:103C2000101A1D4A9142DDD19FED1C0A80ED150A44
:103C30009FED1B0ABEE7000052520020D05000202A
:103C4000375200200000704200007042CE5E00201B
:103C5000A0520020000060410000FA4500004842E8
:103C6000000034420080544500000C4200004842ED
:103C70000000204200C08F4500005C4200209945B2
:103C800000409C450000A0420080BB450000C842A7
:103C900000C0C1450000F04200FF7F470080ED45B5
:103CA0000000344230B527490A78022A03D1496816
:103CB000254A914245DA234B244D243B002493EDC1
:103CC000050A234A10EE101AA9420EDA0121B3EEBA
:103CD0000E1A83F82010547031EE400AD3ED060A14
:103CE00020EE800A83ED070A02E093F8201011B35A
:103CF0005178F7EE000A491C5170002130F911503B
:103D000000EE105AB8EEC01A93ED070AB5EEC00ADD
:103D1000F1EE10FA01DCB1EE400A30EE200AC1EEFD
:103D2000001ABDEEE10A10EE105A20F81150491C9D
:103D3000C9B20429E2D35078322802D383F8204054
:103D4000547030BDF4500020000060410000F0418C
:103D5000D20000200EB50020ADF80000ADF8040040
:103D6000ADF808000888ADF800004888ADF80400F8
:103D70008888ADF80800BDF80000DFED1A1A00EEE3
:103D8000100A1748B8EE401A9FED140AC1EE000A57
:103D9000B2EE091AC0ED010A30EEC11AC1EE210AD5
:103DA00060EE800AFCEEE00A10EE901A0173BDF896
:103DB000040000EE900A0A48F8EE600A243880EE0B
:103DC000801A80ED031ABDF8081000EE901AF8EE84
:103DD000600A80EE801A80ED021A0EBD0000C84213
:103DE000F450002066663641174918484A892AB1BE
:103DF000174B1A810A898284C988C184C18C90EDCD
:103E0000070A490000EE901A9FED121AF8EE600AB8
:103E100000EEC10A80ED070AB5EEC00AF1EE10FA15
:103E200003D29FED0D0A80ED070A818CD0ED070AC1
:103E300000EE101AB8EE400A30EE600ABDEEC00A7D
:103E400080ED080A70470000375200200053002020
:103E5000305300206F12833A0000000010B5044672
:103E60008068E06003F02BF9A0600246A188E0883A
:103E7000814218D0E36894ED001AA2EB030200EE31
:103E8000102AF8EE400A00EE101AB8EE400A0BD2E3
:103E900001EE200ABCEEC00A10EE101A89B2A18011
:103EA000814200D9A08010BD01EE600ABCEEC00ABC
:103EB00010EE101A89B2A1808142F3D310BD6420A4
:103EC00003F0EAF8FBE7000000B500F055F82748DA
:103ED0009FED270A027822B3264BA0F12401B2EE0F
:103EE000041A012A22D0022A1FD1D1ED040A00BFF0
:103EF00070EEC10AC0ED050AF5EEC00AF1EE10FA47
:103F000001D280ED050AD0ED051A90ED012AC1EE2F
:103F1000820AC0ED060AF5EEC00AF1EE10FA1DD8CD
:103F200001E080ED050A80ED060A00BDD1ED031A1F
:103F3000D1ED020AB1EE042A71EEE01A71EEC21A56
:103F4000C0ED041AF5EEC01AF1EE10FA01D280EDC0
:103F5000040AD1ED041A71EEE00AC9E710EE901AD6
:103F60009942E2DB80ED061A00BD0000F45000200B
:103F70000000000000002041F0B513480022017845
:103F8000124889B11249097871B1134CA0F124018A
:103F9000104F247D4368114D01264969BB424FEA09
:103FA000C46403DB002C03DB0270F0BD002C07DAD5
:103FB0000B4CA34204DB02210170F0BD0670F0BD82
:103FC000A942FBDCF0E7000040010020F450002093
:103FD000420100209A99BD41CE5E00200000F041D0
:103FE0000000484110B5502080F31188BFF34F8F77
:103FF000BFF36F8F05F07AFC18B104494FF0805081
:104000000860002080F3118810BD000004ED00E07E
:1040100030B593B030216846FCF77CF914210CA828
:10402000FCF778F919480025016841F080510160DA
:10403000006800F0805011901548016841F48041FB
:1040400001600068022400F480401190012000907B
:10405000000401908001CDE9064008200890A820C6
:10406000CDE9090404200B906846FEF745F90CA938
:104070000F2081E831004FF4A0500F90E002109023
:1040800005210CA8FEF73AF813B030BD40380240C5
:10409000007000401048016841F4700101600F4851
:1040A000016841F0010101600C4A002108321160F1
:1040B00002680B4B1A400260031D0A4A1A6002682C
:1040C00022F48022026005480C3001600249580643
:1040D000803908607047000088ED00E00038024039
:1040E000FFFFF6FE103000240148FEF7F7BA00008B
:1040F000704F0020F0B50268254C264D264E274F04
:10410000274B4FF0804CA04209D0604507D0A84211
:1041100005D0B04203D0B84201D0984204D122F079
:10412000700E4A6842EA0E02A0421BD0604519D0C8
:10413000A84217D0B04215D0B84213D0984211D03F
:10414000184DA8420ED0184DA8420BD0174DA842CA
:1041500008D0174DA84205D0164DA84202D0164DE2
:10416000A84203D122F44075CA682A434D6922F05F
:1041700080022A4302608A68C2620A688262A042A0
:1041800001D0984201D10969016301214161F0BD6B
:10419000000001400004004000080040000C004006
:1041A000000401400040014000440140004801403B
:1041B00000180040001C00400020004010B501F035
:1041C0001F030121046A99408C430462016A9A40EA
:1041D0001143016210BD0000F0B5026A22F0010235
:1041E0000262036A42688469124E24F073050C6807
:1041F0002C4323F002058B682B430D4DA84201D0C0
:10420000B04205D123F00807CB683B4323F00403F9
:10421000A84201D0B04205D14D6922F44072154345
:104220008A692A4342608461496841630362F0BD40
:104230000000014000040140F0B5026A22F01002C3
:104240000262026A436884690D6824F4E64444EA21
:1042500005248D6822F0200242EA05120F4D104E0F
:10426000A84201D0B04206D1CF6822F0800242EAD3
:10427000071222F04002A84201D0B04207D14D6996
:1042800023F4406343EA85038D6943EA8503436071
:104290008461496881630262F0BD00000000014052
:1042A00000040140F0B5026A22F480720262026AE0
:1042B0004368C46922F4007224F073050C68124E3E
:1042C0002C438D6842EA05220E4DA84201D0B0422F
:1042D00006D1CF6822F4006242EA072222F480620B
:1042E000A84201D0B04207D14D6923F4405343EABC
:1042F00005138D6943EA05134360C4614968C163CE
:104300000262F0BD000001400004014030B5026AC5
:1043100022F480520262046A4268C3690D6823F481
:10432000E64343EA05238D6824F4005444EA053447
:10433000084DA84202D0084DA84204D14D6922F48C
:10434000804242EA85124260C361496801640462A6
:1043500030BD00000000014000040140114B124A32
:10436000012812D002280FD1086898604868D860E8
:1043700003F1080090ED000AB1EE400A82ED000A58
:1043800090ED010A82ED010A7047086818604868DC
:10439000586093ED000AB1EE400A82ED020AD06047
:1043A00070470000D4000020105100202DE9F0419A
:1043B000FFF71AFD604A0021604D9078604C01289B
:1043C00002D11078012815D05F489FED5E0A698000
:1043D00080ED0E0A94ED020A84ED010AC4F82C1057
:1043E00000F002F959484FF480710068BDE8F041CF
:1043F00002F072BE6888401C83B26B80D4ED010A63
:1044000094ED022A012730EEC20A84ED030AA68C3D
:104410009FED4F1A4F48F2EE041AB42E33D04E4E91
:1044200096F800C04D4EBCF1070F39D02078002817
:10443000D6D0580002EE900A92ED033AF8EE622AC6
:10444000F4EEC32AF1EE10FACADBB5EEC00AF1EEC3
:1044500010FA01DCB1EE400A10EE100AB042BFDAE9
:10446000206A1428BCDB3E486980C0ED000A80ED5C
:10447000012A8168491C8160027D524252B2027554
:10448000490730D032E0B0F9080038B1B0F5257FE7
:10449000A6D168780028A3D0697017E06F709FE7F5
:1044A000807CF0B12A78002A9AD0002898D0B5EE06
:1044B000C00AF1EE10FA01DCB1EE400A10EE100A6B
:1044C000B0428DDA206A14288ADB297030EE810A26
:1044D00084ED010A94ED070A30EE210A84ED070A03
:1044E0007EE72F707CE7417D49424175818B12FB4D
:1044F00001F200EE102AB8EEC00A80ED030A90F92E
:10450000152012FB01F100EE101AB8EEC00A80ED82
:10451000040A30EE810A84ED010A94ED070A30EEB8
:10452000210A84ED070A02F0CAFD6860A968411AF1
:10453000E162A86054E70000305300201801002019
:104540000053002000000000B05900208800002027
:1045500000FB0F47CE5E002042010020675EE6466A
:104560008052002010B59FED190A00232DED028B1B
:10457000B0EE401A9FED168A41F690220321F0EE2C
:10458000480A1448FFF7AEFAB0EE481ADFED120AF7
:10459000B1EE040A41F27C5342F2107203210F483B
:1045A000FFF7A0FA0E4800229FED0E0A826080ED10
:1045B000030A80ED040A0121017541754FF42F7142
:1045C00082618183BDEC028B10BD00009A99993EF7
:1045D00000000000405900206F12033CB059002039
:1045E0008052002000FB0F4770B5144D144C154845
:1045F00095ED030AB8EEC00A84ED020AD4ED010A73
:1046000002F0EEFD0F48D0ED100AC4ED040AB5F932
:10461000040000EE100A0C48B8EEC00A84ED050A4A
:1046200002F0DEFD0848094990ED100ABDEEC00A0F
:1046300010EE100A2083888170BD000040500020D9
:104640000053002040590020B05900208C53002016
:1046500010B50448FEF778FABDE81040014800F0B4
:10466000B5BA0000704900200148FEF76DBA00009D
:10467000B049002010B5806B0021C185C184FEF7D0
:1046800062FA10BD70B5846B2068406994F83910E7
:10469000C0F3C0100025212904D118B1E5842046BB
:1046A00000F062F82068406994F83A10C0F3801076
:1046B000222904D118B1E585204600F047F8E06BC7
:1046C00040F01000E0632046FEF73DFA70BD10B5E3
:1046D0000146806B09680968C90513D40021C185AA
:1046E0000168CA6822F48072CA6001684A6922F0CF
:1046F00001024A6101684A6922F040024A612021B0
:1047000080F83A10FEF7B8FD10BD10B5806BFEF7CB
:10471000B4FD10BD10B50146806B09680968C90574
:104720000CD40021C18401684A6922F080024A61E8
:104730000068C16841F04001C16010BDFEF7DEFDB8
:1047400010BD10B5806BFEF7DAFD10BD0168CA68B8
:1047500022F49072CA6001684A6922F001024A613B
:10476000202180F83A1070470168CA6822F0C00220
:10477000CA60202180F83910704710B590F83A10BF
:10478000222901D0022010BD8168B1F5805F11D0CF
:104790000169002901681FD0496801F07F03816A1F
:1047A0004A1C82620B70C18D491E0904090CC18527
:1047B00018D02BE00269816A002A0268526805D08D
:1047C000D2B20A80816A491C8162ECE7C2F3080216
:1047D0000A80816A891CF7E74A68816A4B1C8362F8
:1047E0000A70E0E70168CA6822F02002CA60016826
:1047F000CA6822F48072CA6001684A6922F0010224
:104800004A61202180F83A10FEF736FD002010BDE5
:104810002DE9F041044600680169E26821F4405145
:10482000114301612169A068E2690843616911438C
:1048300022680843D16849F20C6399430143D1606F
:1048400020684169A26921F4407111434161E26924
:104850006425B2F5004F9748974922684FF0320817
:104860003FD08A4201D082427CD1FDF70FFD00EBA0
:10487000C00101EB001061688900B0FBF1F6FDF7A3
:1048800005FD00EBC00101EB001061688900B0FB81
:10489000F1F0B0FBF5F06FF01801484306EB800132
:1048A00008EB0110B0FBF5F000F0F006FDF7EEFCB0
:1048B00000EBC00101EB001061688900B0FBF1F072
:1048C000B0FBF5F006EB0016FDF7E0FC00EBC001D5
:1048D00001EB001061688900B0FBF1F7FDF7D6FC31
:1048E000D2E08A4201D082423DD1FDF7CFFC00EBFD
:1048F000C00101EB001061684900B0FBF1F0B0FBB2
:10490000F5F00601FDF7C2FC00EBC00101EB001061
:1049100061684900B0FBF1F7FDF7B8FC00EBC0019E
:1049200001EB001061684900B0FBF1F0B0FBF5F05D
:104930006FF01801484307EB800108EBC100B0FBA2
:10494000F5F000F0F80006EB4006FDF79FFC00EBE9
:10495000C00101EB001061684900B0FBF1F7FDF701
:1049600095FC3CE055E0FDF781FC00EBC00101EB5C
:10497000001061684900B0FBF1F0B0FBF5F00601F2
:10498000FDF774FC00EBC00101EB00106168490009
:10499000B0FBF1F7FDF76AFC00EBC00101EB001082
:1049A00061684900B0FBF1F0B0FBF5F06FF0180161
:1049B000484307EB800108EBC100B0FBF5F000F0C5
:1049C000F80006EB4006FDF751FC00EBC00101EBDF
:1049D000001061684900B0FBF1F7FDF747FC00EB00
:1049E000C00101EB001061684900B0FBF1F0B0FBC1
:1049F000F5F06FF01801484307EB800108EBC100A8
:104A0000B0FBF5F000F00700216830448860BDE895
:104A1000F081FDF72BFC00EBC00101EB0010616899
:104A20008900B0FBF1F6FDF721FC00EBC00101EBC2
:104A3000001061688900B0FBF1F0B0FBF5F06FF099
:104A40001801484306EB800108EB0110B0FBF5F0BC
:104A500000F0F006FDF70AFC00EBC00101EB0010CE
:104A600061688900B0FBF1F0B0FBF5F006EB0016D1
:104A7000FDF7FCFB00EBC00101EB00106168890051
:104A8000B0FBF1F7FDF7F2FB00EBC00101EB00100A
:104A900061688900B0FBF1F0B0FBF5F06FF0180130
:104AA000484307EB800108EB0110B0FBF5F000F084
:104AB0000F00A9E7001401400010014090F83910E0
:104AC000212901D0022070478168B1F5805F016A19
:104AD0000BD04A1C0262026809785160C18C491EE1
:104AE0000904090CC1840ED017E009880268C1F3DB
:104AF0000801516001690029016A02D0491C016264
:104B0000ECE7891CFBE70168CA6822F08002CA60F2
:104B10000068C16841F04001C1600020704700009A
:104B2000014800F053B80000F049002010B50448D7
:104B3000FEF70AF8BDE81040014800F047B8000051
:104B4000304A00200148FDF7FFBF0000704A0020F6
:104B500010B50448FDF7F8FFBDE81040014800F02B
:104B600035B80000B04A002010B50446016812486C
:104B7000814206D11149124803F068F812220F4908
:104B800014E01048814207D10C48643801F08AFED5
:104B90000A496422643909E00B4881420BD1074875
:104BA000123004F079F90549142212312046BDE88B
:104BB0001040FEF715BB10BD001001408C510020C5
:104BC000CE5E0020004400400014014038B501686A
:104BD00004460868C043C0060AD4086848680090C4
:104BE0002046FDF784FF2046BDE83840FFF7BCBFF4
:104BF00038BD0000174808B5006801684168009199
:104C0000C16841F01001C160122213491148FEF73A
:104C1000E7FA12480068016841680091C16841F0F4
:104C20001001C1600C49642264390C48FEF7D8FABF
:104C30000B480068016841680091C16841F01001AB
:104C4000C16005491422BDE8084012310448FEF74E
:104C5000C7BA0000F04900208C510020304A0020E3
:104C6000B04A0020FEE7000030B50C46050014D025
:104C7000022C12D90A48A11E02882846FCF70AFA1B
:104C80002919C2B211F8023C9A4206D111F8011C4E
:104C9000B1EB102F01D1012030BD002030BD00004C
:104CA0001A03002030B50C4605000ED0022C0CD99A
:104CB000601E81B2FF222846FCF702FA291911F87A
:104CC000011C814201D1012030BD002030BD03B460
:104CD00001984100009850EAC12018BF04204A0DF5
:104CE00018BF40F0010040F2FF72B2EB515F08BF05
:104CF00040F00200012808BF052002B070470907F4
:104D0000090E002804DB00F1E02080F80014704751
:104D100000F00F0000F1E02080F8141D7047000043
:104D200010B52F499FED2C1B2DED020B84B005987B
:104D300020F000408842D8BF9DED040B2DDD2949AD
:104D4000884209D1049840B94FF0010000F0D4FC2A
:104D500000F0A2FC06B010BD05DB9DED040B00F0D9
:104D60008FFC06B010BD68469DED040B00F0A0F866
:104D700010F0030004BF9DED021B9DED000B0CD055
:104D800001280ED09DED021B9DED000B022817D0CF
:104D9000012000F0DDFB06B010BD00F0A5FA06B062
:104DA00010BD9DED021B9DED000B012000F0D0FB1E
:104DB00051EC100B81F0004106B041EC100B10BD1E
:104DC00000F092FA51EC100B81F0004106B041EC7A
:104DD000100B10BD000000000000000000000000EB
:104DE000FB21E93F0000F07F10B52F499FED2C1B00
:104DF0002DED020B84B0059820F000408842DCBF06
:104E000000209DED040B32DD2849884209D1049829
:104E100040B94FF0010000F06FFC00F03DFC06B01F
:104E200010BD05DB9DED040B00F02AFC06B010BDA3
:104E300068469DED040B00F03BF810F0030011D024
:104E4000012818D09DED021B9DED000B02281AD001
:104E500000F04AFA51EC100B81F0004106B041EC31
:104E6000100B10BD9DED021B9DED000B012000F00D
:104E70006FFB06B010BD9DED021B9DED000B00F019
:104E800033FA06B010BD012000F062FB51EC100BAC
:104E900081F0004106B041EC100B10BD0000000095
:104EA0000000000000000000FB21E93F0000F07F4F
:104EB0002DE9F14F04462DED020B2DED088B8AB044
:104EC0009FEDE70B80ED020B139EE74826F00045AF
:104ED00085420ADC9DED120B002084ED000B0AB028
:104EE000BDEC088B03B0BDE8F08FE0489FEDE0AB70
:104EF0009FEDE1BBA84247DDE14F9FEDE39B9FEDB6
:104F0000E48B9DED120B53EC1A2B51EC100B002E81
:104F10001CDDFBF7ABFA41EC100BBD4208D053ECA3
:104F20001B2B51EC100BFBF7A1FAC4E900010BE0BD
:104F300053EC192B51EC100BFBF798FA53EC182B90
:104F4000FBF794FAC4E900010120C8E7FBF7EDF98B
:104F500041EC100BBD4208D053EC1B2B51EC100B55
:104F6000FBF7E3F9C4E900010BE053EC192B51EC1A
:104F7000100BFBF7DAF953EC182BFBF7D6F9C4E961
:104F800000014FF0FF30AAE7C348A84279DB9DED4E
:104F9000120B51EC100B01F090FA41EC180B9FED45
:104FA000C00B53EC102BFBF767FA9FEDBF1B53ECC4
:104FB000112BFBF7BAF9FBF764FC0746FBF731FC52
:104FC00041EC190B53EC1A2BFBF756FA53EC182B48
:104FD000FBF74FFA41EC180B53EC1B2B51EC190B60
:104FE000FBF74AFADFF8C8A241EC100B4FEA15585C
:104FF0000125FA4453EC102B51EC180BFBF736FA51
:10500000032DC4E900013DD0C1F30A5005EB451161
:10501000A8EB00001139814234DA0AEB051BB0EE2F
:1050200048AA9BED000BF0EE68AA53EC102B51EC54
:10503000190BFBF721FA41EC1B0B51EC1A0B53EC4B
:105040001B2BFBF713FA41EC180B51EC1A0B53EC2A
:10505000182BFBF70BFA53EC1B2BFBF707FA9BED16
:10506000020B41EC1A0B53EC102B51EC190BFBF714
:1050700003FA53EC1A2BFBF7F9F941EC100B6D1CFA
:10508000B8E70EE0002EA8BF3846BFF628AF94ED73
:10509000000B51EC100B81F00041C4E90001784293
:1050A0001DE7C6F3130040F4801EC6F30A50A0F2B9
:1050B000F530471100F01F05C5F12000DDF848B0BC
:1050C00008900020069007900520EC467949002DB5
:1050D00007EB0002794408BF51F8221009D051F8BB
:1050E000223001EB8201AB404A68089922FA01F1B3
:1050F0001943A1FB0E26A1FB0B131A449A4234BF9D
:105100000123002303EB06080CEB8003D3E901A67F
:105110000E448E4234BF0121002192448A4411B1D1
:10512000924502D903E0924501D2012100E000211D
:10513000C3E901A641444CF82010011EA0F1010072
:10514000C4DC029800F10050850F0298DDE9036786
:105150008000DDF81480FBF764FB41EC1A0B30464D
:10516000FBF782FB9FED541B53EC112BFBF784F9EB
:1051700041EC1B0B3846FBF777FB9FED511B53ECC3
:10518000112BFBF779F941EC180B4046FBF76CFB50
:105190009FED4D1B53EC112BFBF76EF941EC190BF6
:1051A00051EC180B53EC192BFBF7BFF853EC1B2BEE
:1051B000FBF7BBF853EC1A2BFBF7B7F8CDE9080166
:1051C000002008909DED080B53EC1A2B51EC100BAE
:1051D000FBF74CF953EC1B2BFBF748F953EC182B5E
:1051E000FBF744F953EC192BFBF743F99FED381B00
:1051F00053EC112BFBF740F99FED370B41EC180BEB
:1052000053EC102B9DED080B51EC100BFBF734F910
:1052100053EC182BFBF789F89FED310B41EC180B81
:1052200053EC102B9DED080B51EC100BFBF724F900
:1052300053EC182BFBF779F841EC100B139810F096
:10524000004F06D06D4251EC100B81F0004141EC53
:10525000100B284684ED000B41E600000000000022
:105260000000000000000000FB21E93F7CD9024063
:1052700000004054FB21F93F3163621A61B4D03D14
:10528000FB21F93F000000000000601A61B4D03D2E
:105290007370032E8A19A33BFB21394100000000E3
:1052A00083C8C96D305FE43F000000000000E03FAC
:1052B000CA51000018510000000000000000103E1C
:1052C000000000000000103C000000000000103A48
:1052D000182D4454FB21F93D3326A611460B113CF1
:1052E00000000054FB21F93D10B52DED040B2DED10
:1052F000088B82B0B0EE419AF0EE619A0B9820F0E4
:1053000000449FED4BABB4F1795F11DA9DED0A0BD0
:1053100051EC100BFBF7B5FA002801BFB0EE4A0ABA
:10532000F0EE6A0A02B0BDEC088B04BF04B010BDF9
:105330009DED0A0B53EC102B51EC100BFBF79CF876
:1053400041EC180B3C480621B0EE480AF0EE680A22
:10535000784400F081F853EC182B51EC100BFBF75C
:105360008BF89DED0A0B41EC1B0B53EC192B51EC08
:10537000100BFBF781F841EC190B53EC1B2B51EC94
:10538000180BFBF779F853EC192BFBF76FF89FED2F
:105390002C0B41EC190B53EC102B51EC180BFBF7B9
:1053A0006BF841EC100B2848844210DA53EC192BAF
:1053B00051EC100BFBF75AF853EC1A2BFBF759F88A
:1053C00041EC100B02B0BDEC088B04B010BD1F48BF
:1053D000A042BCBF9FED1E1B8DED001B06DBA4F59C
:1053E00000100190002000909DED001B51EC100B6F
:1053F00053EC112BFBF73AF89DED000B41EC180B29
:1054000053EC102B51EC1A0BFBF730F841EC1A0B54
:1054100053EC192B51EC180BFBF728F853EC1A2B13
:10542000FBF727F841EC100BCCE700000000000070
:10543000000000000000F03F3C4E000000000000B3
:10544000000000000000E03F3333D33F0000E93F9D
:10545000000000000000D23F70B504462DED028B25
:105460004D1E00EBC500B0EE408AF0EE608A90ED74
:10547000000B35F0060017D053EC182B51EC100B35
:10548000FAF7FAFF41EC100B6D1E04EBC50090ED2E
:10549000001B51EC100B53EC112BFAF746FF41ECBB
:1054A000100B35F00600E7D1022D36D0042D1CD0AC
:1054B000062D1CBFBDEC028B70BD53EC182B51ECBC
:1054C000100BFAF7D9FF94ED0A1B53EC112BFAF7E6
:1054D0002CFF53EC182BFAF7CFFF94ED081B53EC7D
:1054E000112BFAF722FF41EC100B53EC182B51EC67
:1054F000100BFAF7C1FF94ED061B53EC112BFAF7D2
:1055000014FF53EC182BFAF7B7FF94ED040B53EC90
:10551000102BFAF70AFF41EC100B53EC182B51EC4F
:10552000100BFAF7A9FF94ED021B53EC112BFAF7BD
:10553000FCFE53EC182BFAF79FFF94ED001B53EC85
:10554000112BFAF7F2FEBDEC028B41EC100B70BD93
:1055500031B504462DED040B2DED0A8BB0EE41BAAA
:10556000F0EE61BA0B989DED0A0B20F00040B0F10F
:10557000795F0DDA51EC100BFFF7A9FB042808BF87
:1055800000F09AF89DED0A0BBDEC0A8B05B030BD1A
:1055900053EC102B51EC100BFAF76EFF41EC180B8B
:1055A0009DED0A0B53EC182B51EC100BFAF764FF2E
:1055B00041EC190B2C48B0EE480AF0EE680A0521C0
:1055C0007844FFF749FF9FED2ACBB0EE40AAF0EEFA
:1055D00060AA9CB353EC1C2B51EC190BFAF74CFF4F
:1055E00041EC1C0B53EC1A2B51EC190BFAF744FF4E
:1055F0009FED210B41EC190B53EC102B51EC1B0BC5
:10560000FAF73AFF53EC192BFAF730FF53EC182B4B
:10561000FAF732FF53EC1B2BFAF728FF53EC1C2B45
:10562000FAF724FF9DED0A1B53EC112BFAF721FF2B
:10563000BDEC0A8B05B041EC100B30BDFFE753EC1D
:105640001A2B51EC180BFAF717FF53EC1C2BFAF737
:105650006CFE53EC192BFAF70FFF9DED0A1B53EC70
:10566000112BFAF762FEE3E7C44C000000000000D3
:10567000495555555555C5BF000000000000E03F95
:1056800010B553EC102B51EC100BFAF74EFE41EC19
:10569000100B10BD000000009FED050B10B553EC82
:1056A000102B51EC100BFAF759FF41EC100B10BD09
:1056B00000000000000000009FED050B10B553EC4A
:1056C000102B51EC100BFAF7D7FE41EC100B10BD6C
:1056D000000000000000001002E008C8121F08C10E
:1056E000002AFAD170477047002001E001C1121F63
:1056F000002AFBD170470000014908607047000094
:105700001C03002030EE201AD0ED001AF4EEC11A6E
:10571000F1EE10FA02DCB0EE611A01E080ED001A41
:1057200030EEC00AB4EEC01AF1EE10FA01D280EDEC
:10573000000A70470180428043607047F0B54F68AF
:1057400001884688426800240B46B508284607EBC6
:10575000840C1AE092ED000A401E8CED000A0CEB5E
:10576000810C92ED010A80B28CED000A0CEB810CE9
:1057700092ED020A8CED000A0CEB810C92ED030A0B
:1057800010328CED000A0CEB810C0028E2D106F0FF
:10579000030007E0B2EC010A401E80B28CED000A63
:1057A0000CEB810C0028F5D1641C5B1E1B04A4B219
:1057B0001B0CCBD1F0BD000070B5114C049D2060D6
:1057C0000020A060E060082020610E480C0A0470F0
:1057D0004170110A8170C270190A01714371290A5E
:1057E0008171C5710848FBF7ECFDC0B20028F9D003
:1057F000BDE870400123034A01490348FBF782BC1E
:1058000058500020B5000020384100201CB5002170
:105810000F4800910191102281600260C16008214F
:1058200001610C4800788DF800000A482438C06BEC
:10583000CDF801000848FBF7C4FDC0B20028F9D03C
:1058400002236A4602490448FBF75CFC1CBD0000C9
:1058500058500020F45000203841002070B5114C01
:10586000049D20600020A060E060082020610E48B8
:105870000C0A04704170110A8170C270190A01711A
:105880004371290A8171C5710848FBF79AFDC0B2BE
:105890000028F9D0BDE870400123034A01490348BC
:1058A000FBF730BC8C500020C50000206041002078
:1058B00000B58BB00020012103900490CDE90601D2
:1058C000CDE90810059000900190029069461448B7
:1058D000FBF77CFC69461248FBF778FC0028F9D1FD
:1058E0000E20059069460F48FBF770FC69460D488D
:1058F000FBF76CFC0028F9D16420FCF751FA08484A
:10590000FCF74CF802210648FBF7EAFB0548FCF7D8
:1059100045F802210348FBF7E3FB0BB000BD000094
:1059200038410020604100200EB5314C4FF0FF3867
:105930004FF4E079002540F2FF174FF4007A424619
:105940004946684601F0F6FBDDE900060828F6D175
:105950002848007830B32848007818B3700610D56E
:1059600000950023B4F908101A463846FFF724FFC3
:105970000095B4F90C30B4F90A2000213846FFF73D
:105980006DFF30060BD5B4F906000090B4F9043071
:10599000B4F90220B4F900105046FFF70DFFFFF7ED
:1059A00035FFCCE75FF0000024F81050401C0428BD
:1059B000FADB002004EB4001401C0D810228F9DBDA
:1059C0000023A5811A46194638460095FFF7F4FED4
:1059D00000231A46194638460095FFF73FFF00237B
:1059E0001A46194650460095FFF7E6FEA7E7000065
:1059F0008C53002042010020400100202DE9F0419D
:105A00001B4D00242DED028B41F288369FED198A43
:105A100043F2C827C4EBC400F0EE480A05EB0010BF
:105A2000B0EE601AB1EE0C0A33463A460321FEF797
:105A300059F8641CE4B2042CECD3F0EE480AB1EE41
:105A40000C0AB0EE601A002341F2707203210A487A
:105A5000FEF748F80948B2EE080A094980ED020A43
:105A600080ED030A00200870BDEC028BBDE8F081D8
:105A7000905A002000000000205A0020E45E002020
:105A8000A052002070B5394D394C2DED028B287D88
:105A90009FED388AD4ED160A94ED151AC10702D08D
:105AA000F0EE481A1FE08107314890ED150AF1EE3B
:105AB000401A90ED160AB1EE400A02D5F0EE400A07
:105AC0000FE02D4890ED012AB5EEC02AF1EE10FA54
:105AD00002DDF0EE400AE3E7B5EEC02AF1EE10FA7F
